:020000040800F2
:100000001808002089010008E5010008E501000842
:10001000E5010008E5010008E50100080000000016
:10002000000000000000000000000000E5010008E2
:10003000E501000800000000E5010008E5010008F6
:10004000E5010008E5010008E5010008E5010008F8
:10005000E5010008E5010008E5010008E5010008E8
:10006000E5010008E5010008E5010008E5010008D8
:10007000E5010008E5010008E5010008E5010008C8
:10008000E5010008E5010008E5010008E5010008B8
:10009000E5010008E5010008E5010008E5010008A8
:1000A000E5010008E5010008E5010008E501000898
:1000B000E5010008E5010008E5010008E501000888
:1000C000E5010008E5010008E5010008E501000878
:1000D000E5010008E5010008E5010008E501000868
:1000E000E5010008E5010008E5010008E501000858
:1000F000E5010008E5010008E5010008E501000848
:10010000E5010008E5010008E5010008E501000837
:10011000E5010008E5010008E50100084D030008BD
:10012000E5010008E5010008E5010008E501000817
:10013000E5010008E5010008E5010008E501000807
:10014000E5010008E5010008E5010008E5010008F7
:10015000E5010008E5010008E5010008E5010008E7
:10016000E5010008E5010008E5010008E5010008D7
:10017000E5010008E5010008E5010008E5010008C7
:10018000E5010008E501000880B582B000AF104B22
:100190007B60104B3B6007E03B681A1D3A607A6851
:1001A000111D796012681A603A680B4B9A42F3D3BA
:1001B0000A480B494FF000028842B8BF40F8042BB0
:1001C000FFF6FAAF00F07EF90837BD4680BD00BFEC
:1001D000A40600080000002000000020000000200D
:1001E0001400002080B400AFFEE700BF80B483B0ED
:1001F00000AF4A4B494A126842F470021A60002369
:100200007B6002E07B6801337B607B68B3F5801F15
:10021000F8D3434B424A926842F414429A60404BEE
:100220003F4A126842F480321A6000BF3C4B1B68A0
:1002300003F40033002BF9D0394B3A4A5A60384B5B
:10024000374A126842F080721A6000BF344B1B6854
:1002500003F00073002BF9D0334B40F205621A60B3
:100260002F4B2F4A926842F002029A6000BF2C4B3B
:100270009B6803F00F030A2BF9D1294B284A126B14
:1002800042F01F021A63294B294A1A60274B4FF08C
:10029000FF329A60274B284A1A62264B254A126879
:1002A00042F428421A601E4B1D4A526C42F480529E
:1002B0005A64224B40221A60204B4FF0FF329A6062
:1002C0001E4B08221A831E4B40F67F321A801C4BAD
:1002D00000229A80124B124A126C42F020021A64D9
:1002E000184B80221A80174B40F247321A85154B63
:1002F0000122DA62134B01229A81134B4FF4000260
:100300005A60104B0F4A128892B242F0010292B228
:100310001A800C37BD465DF8047B704788ED00E01D
:1003200000380240042A4007003C0240000C024012
:1003300000005555000002400000505500100240DA
:10034000003001400014004000E100E080B483B0C0
:1003500000AF234B00221A82224B5B699BB263F0F1
:10036000FF03FB80204B1B780133DAB21E4B1A705F
:100370001D4B1B78002B0ED10023BB8008E0BB88EF
:10038000BA881A49895C1A4AD154BB880133BB80A8
:10039000BB88072BF3D94FF400437B800023BB803D
:1003A00013E0BB88124AD25C0F4B1B789A4206D8E6
:1003B0007B88DB439AB2FB8813409BB2FB807B882F
:1003C0005B087B80BB880133BB80BB88072BE8D9E7
:1003D000044BFA885A610C37BD465DF8047B7047C0
:1003E00000140040000C0240000000200C0000201F
:1003F0000400002080B485B000AF0346FB80174B9B
:1004000008225A83164B1B899BB2FB73144BFA8844
:100410009A8100BF124B1B899BB203F00103002B92
:10042000F8D000BF0E4B1B899BB203F08003002B5A
:10043000F8D10B4B9B899BB2FB7300BF084B1B8908
:100440009BB2022BFAD1054B08221A83FB7B5BB2CD
:1004500018461437BD465DF8047B70470010024013
:100460000030014080B582B000AF02460B46FA7101
:10047000BB71FB7903F03F031B029AB2BB799BB2BD
:1004800013439BB21BB21846FFF7B4FF034618464E
:100490000837BD4680BD00BF80B582B000AF0346BF
:1004A000FB71FB7903F03F0343F080031B029BB217
:1004B0001BB21846FFF79EFF034618460837BD4695
:1004C00080BD00BF80B58CB000AFFFF78FFE0F205E
:1004D000FFF7E2FF03463B2B40F0CA802020472174
:1004E000FFF7C0FF00BF2720FFF7D6FF0346DBB2B0
:1004F00003F00103002BF6D02920FFF7CDFF0346C0
:1005000087F8293000BF2720FFF7C6FF0346DBB27C
:1005100003F00203002BF6D02B20FFF7BDFF0346AC
:1005200087F828302720FFF7B7FF034687F82730E2
:1005300097F8273003F00103002B49D03B7D5BB2D5
:100540007B852920FFF7A8FF0346DAB297F8293008
:10055000D31ADBB287F826300F23FB6219E0FB6A5F
:10056000013B07F13002134413F81C2C07F114016E
:10057000FB6A0B441A7007F11402FB6A13441B78E0
:100580005BB29AB27B8D13449BB27B85FB6A013BC5
:10059000FB62FB6A002BE2DC97F826303B75B7F96B
:1005A0002A309B107B85B7F92A30002B07DB7B8D27
:1005B000DAB2394B1A70384B00229A7008E0364B89
:1005C00000221A707B8DDBB25B42DAB2324B9A703A
:1005D00097F8273003F00203002B48D03B795BB239
:1005E0007B852B20FFF758FF0346DAB297F82830B7
:1005F000D31ADBB287F826300F23FB6217E0FB6AC1
:10060000013B07F13002134413F82C2C391DFB6A0F
:100610000B441A703A1DFB6A13441B785BB29AB202
:100620007B8D13449BB27B85FB6A013BFB62FB6ABB
:10063000002BE4DC97F826303B71B7F92A309B1089
:100640007B85B7F92A30002B07DB7B8DDAB2124BA2
:100650005A70114B0022DA7009E00F4B00225A70D9
:100660007B8DDBB25B42DAB20B4BDA705AE759E7AB
:100670000A4B00229A810023FB6202E0FB6A0133ED
:10068000FB62FB6AB3F1807FF8DB054B044A5269D9
:1006900082F470425A61EEE70C0000200014004022
:0406A000000C024008
:0400000508000000EF
:00000001FF
