:020000040800F2
:100000001808002089010008E5010008E501000842
:10001000E5010008E5010008E50100080000000016
:10002000000000000000000000000000E5010008E2
:10003000E501000800000000E5010008E5010008F6
:10004000E5010008E5010008E5010008E5010008F8
:10005000E5010008E5010008E5010008E5010008E8
:10006000E5010008E5010008E5010008E5010008D8
:10007000E5010008E5010008E5010008E5010008C8
:10008000E5010008E5010008E5010008E5010008B8
:10009000E5010008E5010008E5010008E5010008A8
:1000A000E5010008E5010008E5010008E501000898
:1000B000E5010008E5010008E5010008E501000888
:1000C000E5010008E5010008E5010008E501000878
:1000D000E5010008E5010008E5010008E501000868
:1000E000E5010008E5010008E5010008E501000858
:1000F000E5010008E5010008E5010008E501000848
:10010000E5010008E5010008E5010008E501000837
:10011000E5010008E5010008E50100084D030008BD
:10012000E5010008E5010008E5010008E501000817
:10013000E5010008E5010008E5010008E501000807
:10014000E5010008E5010008E5010008E5010008F7
:10015000E5010008E5010008E5010008E5010008E7
:10016000E5010008E5010008E5010008E5010008D7
:10017000E5010008E5010008E5010008E5010008C7
:10018000E5010008E501000880B582B000AF104B22
:100190007B60104B3B6007E03B681A1D3A607A6851
:1001A000111D796012681A603A680B4B9A42F3D3BA
:1001B0000A480B494FF000028842B8BF40F8042BB0
:1001C000FFF6FAAF00F0D0F90837BD4680BD00BF9A
:1001D0003807000800000020000000200000002078
:1001E0001800002080B400AFFEE700BF80B483B0E9
:1001F00000AF4A4B494A126842F470021A60002369
:100200007B6002E07B6801337B607B68B3F5801F15
:10021000F8D3434B424A926842F414429A60404BEE
:100220003F4A126842F480321A6000BF3C4B1B68A0
:1002300003F40033002BF9D0394B3A4A5A60384B5B
:10024000374A126842F080721A6000BF344B1B6854
:1002500003F00073002BF9D0334B40F205621A60B3
:100260002F4B2F4A926842F002029A6000BF2C4B3B
:100270009B6803F00F030A2BF9D1294B284A126B14
:1002800042F01F021A63294B294A1A60274B4FF08C
:10029000FF329A60274B284A1A62264B254A126879
:1002A00042F428421A601E4B1D4A526C42F480529E
:1002B0005A64224B40221A60204B4FF0FF329A6062
:1002C0001E4B08221A831E4B40F67F321A801C4BAD
:1002D00000229A80124B124A126C42F020021A64D9
:1002E000184B80221A80174B40F247321A85154B63
:1002F0000122DA62134B01229A81134B4FF4000260
:100300005A60104B0F4A128892B242F0010292B228
:100310001A800C37BD465DF8047B704788ED00E01D
:1003200000380240042A4007003C0240000C024012
:1003300000005555000002400000505500100240DA
:10034000003001400014004000E100E080B483B0C0
:1003500000AF4A4B00221A824FF47F43FB80484B88
:100360001B780133DAB2464B1A70454B1B78002BD1
:100370000ED10023BB8008E0BB88BA884149895C64
:10038000414AD154BB880133BB80BB88072BF3D9CA
:100390004FF400437B800023BB8013E0BB883A4AC4
:1003A000D25C374B1B789A4206D87B88DB439AB2E3
:1003B000FB8813409BB2FB807B885B087B80BB88FB
:1003C0000133BB80BB88072BE8D9FB8803F480533B
:1003D000002B09D02D4B2D4A526942F480525A61AC
:1003E0002B4B00221A7005E0284B284A526922F450
:1003F00080525A61FB8803F40053002B09D0234B31
:10040000224A526942F400525A61214B01221A7069
:1004100005E01E4B1D4A526922F400525A61FB88C6
:1004200003F48043002B09D0184B184A526942F458
:1004300080425A61174B01221A7005E0134B134A90
:10044000526922F480425A61FB881BB2002B09DA00
:100450000E4B0E4A526942F400425A610C4B002284
:100460001A7005E0094B094A526922F400425A61A8
:100470000C37BD465DF8047B704700BF0014004098
:10048000040000201000002008000020000C0240A2
:10049000010000200000002080B485B000AF0346BA
:1004A000FB80174B08225A83164B1B899BB2FB73A8
:1004B000144BFA889A8100BF124B1B899BB203F040
:1004C0000103002BF8D000BF0E4B1B899BB203F039
:1004D0008003002BF8D10B4B9B899BB2FB7300BFB1
:1004E000084B1B899BB2022BFAD1054B08221A83B9
:1004F000FB7B5BB218461437BD465DF8047B704742
:10050000001002400030014080B582B000AF0246CA
:100510000B46FA71BB71FB7903F03F031B029AB2E1
:10052000BB799BB213439BB21BB21846FFF7B4FFD3
:10053000034618460837BD4680BD00BF80B582B06F
:1005400000AF0346FB71FB7903F03F0343F08003E8
:100550001B029BB21BB21846FFF79EFF03461846CC
:100560000837BD4680BD00BF80B58CB000AFFFF737
:100570003DFE0F20FFF7E2FF03463B2B40F0CA8011
:1005800020204721FFF7C0FF00BF2720FFF7D6FF3D
:100590000346DBB203F00103002BF6D02920FFF75E
:1005A000CDFF034687F8293000BF2720FFF7C6FF9D
:1005B0000346DBB203F00203002BF6D02B20FFF73B
:1005C000BDFF034687F828302720FFF7B7FF034613
:1005D00087F8273097F8273003F00103002B49D024
:1005E0003B7D5BB27B852920FFF7A8FF0346DAB28B
:1005F00097F82930D31ADBB287F826300F23FB6235
:1006000019E0FB6A013B07F13002134413F81C2C7C
:1006100007F11401FB6A0B441A7007F11402FB6A1C
:1006200013441B785BB29AB27B8D13449BB27B85DB
:10063000FB6A013BFB62FB6A002BE2DC97F8263089
:100640003B75B7F92A309B107B85B7F92A30002B10
:1006500007DB7B8DDAB2364B1A70354B00229A706D
:1006600008E0334B00221A707B8DDBB25B42DAB2BA
:100670002F4B9A7097F8273003F00203002B48D0D5
:100680003B795BB27B852B20FFF758FF0346DAB23C
:1006900097F82830D31ADBB287F826300F23FB6295
:1006A00017E0FB6A013B07F13002134413F82C2CCE
:1006B000391DFB6A0B441A703A1DFB6A13441B7800
:1006C0005BB29AB27B8D13449BB27B85FB6A013B84
:1006D000FB62FB6A002BE4DC97F826303B71B7F92C
:1006E0002A309B107B85B7F92A30002B07DB7B8DE6
:1006F000DAB20F4B5A700E4B0022DA7009E00C4B45
:1007000000225A707B8DDBB25B42DAB2084BDA70A2
:100710005AE759E7074B00229A810023FB6202E067
:10072000FB6A0133FB62FB6AB3F1807FF8DBF4E71D
:0807300010000020001400403D
:0400000508000000EF
:00000001FF
